:020000040800F2
:10000000D00801209D0100089F300008851D0008D0
:10001000353000080113000895800008000000003A
:100020000000000000000000000000004571000812
:10003000A51900080000000067080008D97300082F
:10004000B7010008B7010008B7010008B7010008B0
:10005000B7010008B7010008B7010008B7010008A0
:10006000B7010008B7010008B7010008B701000890
:10007000B7010008B701000871150008B7010008B2
:10008000B701000881150008B7010008B701000892
:10009000B7010008B7010008B7010008B701000860
:1000A000B7010008B7010008B7010008B701000850
:1000B000B7010008CD74000839750008B7010008C1
:1000C000B7010008B7010008B7010008B701000830
:1000D000B7010008357A0008BD7A0008197B0008CE
:1000E000B7010008B7010008B7010008B701000810
:1000F000B7010008B7010008B7010008C9150008DA
:10010000B7010008B7010008B7010008B7010008EF
:10011000B7010008FD790008B7010008B701000821
:10012000B7010008B7010008B7010008B7010008CF
:10013000B7010008B7010008B7010008B7010008BF
:10014000B7010008B7010008B7010008B7010008AF
:10015000B7010008091600084D160008297B0008A1
:10016000B7010008B7010008B7010008B70100088F
:10017000B7010008B7010008B7010008B70100087F
:10018000B7010008B7010008DFF80CD000F000FB51
:1001900000480047B1AB0008D0080120064880475E
:1001A00006480047FEE7FEE7FEE7FEE7FEE7FEE75C
:1001B000FEE7FEE7FEE7FEE7F573000889010008A9
:1001C00072B6704762B67047EFF3108072B6704730
:1001D00080F31088704730BF704720BF7047B0FA77
:1001E00080F0704790FAA0F0B0FA80F0704790FA73
:1001F000A0F0704740EA01039B0703D009E008C95B
:10020000121F08C0042AFAD203E011F8013B00F8DB
:10021000013B521EF9D270472DE9FE4F81EA0304DB
:1002200004F0004421F0004100944FF0000B23F053
:10023000004350EA01045ED052EA03045BD0C3F3EA
:100240000A54C1F30A552C44A4F2F3340194A0FBE0
:100250000254C1F3130141F48011C3F3130343F4B7
:10026000801301FB024400FB034E840A970A44EA10
:10027000815447EA8357A4FB076802958D0A05FB62
:1002800007854FEA932C04FB0C542705029D4FEA87
:10029000065847EA1637B5EB08056EEB070C870ED4
:1002A000920E47EA811742EA8312A7FB0201B6EBDE
:1002B0000B0164EB00042B0D43EA0C335E1844EB96
:1002C0001C50DA465146E7FB0201C5F313044FEA1E
:1002D0000B3343EA14534FEA0432019C43EA06030A
:1002E000A4F10C040294009CCDE900B400F009F9DB
:1002F00003B0BDE8F08F00200146F9E72DE9F04D8D
:1003000081EA030404F0004B21F0004514464FF04D
:10031000000A23F0004150EA050220D054EA01020D
:100320001DD0C5F30A570246C5F31303C1F31300EA
:10033000C1F30A5640F4801543F48013A7EB060876
:10034000101BD64608F2FD3873EB050002D308F106
:10035000010801E092185B41B8F1000F03DA0020B8
:100360000146BDE8F08D00204FF48011064684461A
:100370000EE0171B73EB050705D3121B63EB050398
:1003800006434CEA010C49084FEA300092185B41E1
:1003900050EA0107EDD152EA030012D082EA0400CC
:1003A00083EA0501084305D0101BAB4106D20122A8
:1003B000002306E000224FF0004302E06FF001024C
:1003C00053101AEB06004CEB085110EB0A0041EBFE
:1003D0000B01BDE8F04D00F085B800F0004230F0B0
:1003E00000400AD0C10D01F56071C0F3160042EA69
:1003F0000151C20840071143704700200146704771
:1004000001F0004330B421F0004150EA010206D06F
:100410000A0DA2F56072C1F31301002A02DC30BCA0
:1004200000207047440F44EAC104C100E01830BC0A
:1004300000EBC25000F01FB8202A04DB203A00FA7B
:1004400002F1002070479140C2F1200320FA03F32B
:10045000194390407047202A04DB203A21FA02F029
:100460000021704721FA02F3D040C2F120029140EE
:100470000843194670470029A8BF7047401C49002F
:1004800008BF20F00100704710B4B0FA80FC00FAF9
:100490000CF050EA010404BF10BC704749B1CCF124
:1004A000200421FA04F411FA0CF118BF01212143B0
:1004B0000843A3EB0C01CB1D4FEA00614FEA10206B
:1004C00042BF002010BC704700EBC350104400290D
:1004D000A4BF10BC7047401C490008BF20F00100B9
:1004E00010BC704710B5141E73F1000408DA401CEC
:1004F00041F1000192185B411A4301D120F0010043
:1005000010BD2DE9F04D92469B4611B1B1FA81F232
:1005100002E0B0FA80F220329046FFF78DFF0446E9
:100520000F4640EA0A0041EA0B0153465A46084387
:1005300013D0114653EA010019D0C8F140025046C9
:10054000FFF789FF05460E46504659464246FFF7DB
:1005500073FF084305D0012004E020463946BDE87A
:10056000F08D0020054346EAE0762C4337430A9895
:100570006305E40AA0EB08000022FD0A44EA4754A0
:100580000A3002D500200146E9E70105101969414A
:10059000DDE9084500196941BDE8F04DA2E72DE904
:1005A000FE4F804681EA0300C00F0C46009021F008
:1005B000004123F00045B8EB0200A94105D24046B6
:1005C000214690461C460B46024623F0004010434D
:1005D00047D0270DC7F30A00C3F30A510290401A0F
:1005E000019040286BDAC3F3130040F4801B00989D
:1005F000924620B10023D2EB030A63EB0B0B019868
:100600005946C0F140025046FFF716FF06460D4618
:1006100050465946019A00F0CDF810EB08006141B0
:10062000002487EA115284EAE7731A4340D0009A03
:1006300062B3019A012A4FEA075215DC001B61EBF5
:1006400002014FF0004202EA0752CDE90042001CCD
:1006500041F5801132462B46FFF753FF03B0BDE84A
:10066000F08F40462146F9E7001B61EB0201001CB8
:1006700041F5801300185B412018A2F5001747EBE5
:10068000030140EAD570B6196D4111E06D084FEADB
:10069000360645EAC0754FEA0752001B61EB0201BE
:1006A000001C41F5801149084FEA30000019514102
:1006B00032462B4603B0BDE8F04FFFF713BF00985A
:1006C000012240000023D0EB020263EBE0730098AC
:1006D00021464FEAE074B8EB000061EB0401E9E762
:1006E00083F000435BE781F0004158E72DE9F04DCE
:1006F00000231A461B1A8A4103DB00200146BDE88D
:10070000F08DC1F30A52C1F3130141F480154FF08B
:10071000000BD10702D100186D41521E002704467C
:1007200040F2FF11384601EB620A3E46804602461F
:1007300000204FF48011FFF78EFEC2197141BB18E3
:1007400046EB0100B4EB030C75EB000C04D3E41A88
:1007500065EB000517460E46241908F101006D41AE
:1007600080463428E3DDF91946EB0600091BA84151
:1007700003D24FF0FF32134601E0002213461BEB79
:10078000070046EB0A51BDE8F04DFFF7ABBE000095
:10079000064C074D06E0E06840F0010394E80700CE
:1007A00098471034AC42F6D3FFF7F2FCA8B9000822
:1007B000C8B90008202A06DBCB17203A41FA02F01C
:1007C00043EAE07306E041FA02F3D040C2F12002AE
:1007D000914008431946704770B58C1810F8015BBA
:1007E00015F0070301D110F8013B2A1106D110F8CA
:1007F000012B03E010F8016B01F8016B5B1EF9D1CE
:100800002B0705D40023521E0DD401F8013BFAE753
:1008100010F8013BCB1A921C03E013F8015B01F8BE
:10082000015B521EF9D5A142D8D3002070BD000053
:1008300022484FF6FF710170002080F3098820489C
:10084000016881F308881F484FF08051016062B64B
:10085000FEE71C484FF080510160704719484FF087
:1008600080510160704772B6EFF3098050B11EF0FD
:10087000100F08BF20ED108A203880E8F00F1249D1
:100880000968086000B5114880475DF804EB10481E
:1008900010490A7802700C480F490A680260106813
:1008A00090E8F00F20301EF0100F08BFB0EC108A57
:1008B00080F309884EF0040E62B6704722ED00E026
:1008C000D400002004ED00E0CC000020E548000842
:1008D0005A0000205B000020D000002021B1826877
:1008E00042F00102826003E0826822F0010282602D
:1008F000704700000021084A1168084A1140D0E9F9
:1009000000231A4383681A43C3681A431143044AF5
:10091000C2F804137047000004230140E030FCFFDC
:100920000020014021B1826842F48072826003E0BD
:10093000826822F480728260704721B1826842F43A
:100940000072826003E0826822F400728260704765
:1009500030B50246002000235068104C20400D792D
:100960000C6844EA05242043506090680C4C2040F9
:10097000D1E903542C438D682C434D7944EA450456
:1009800020439060D06A20F470000C7D641EE4B2B5
:10099000234340EA0350D06230BD0000FFFEFFFC5D
:1009A000FDF7FFC0F0B504460D4600200021092DDB
:1009B00011DDE068A5F10A0606EB4607072606FAF0
:1009C00007F18843A5F10A0606EB460603FA06F18D
:1009D0000843E0600CE0206905EB4507072606FAAE
:1009E00007F1884305EB450603FA06F10843206149
:1009F000072A0FDA606B561E06EB86071F2606FADB
:100A000007F18843561E06EB860605FA06F10843F1
:100A1000606322E00D2A0FDA206BD61F06EB8607F3
:100A20001F2606FA07F18843D61F06EB860605FA4D
:100A300006F10843206310E0E06AA2F10D0606EB20
:100A400086071F2606FA07F18843A2F10D0606EB7A
:100A5000860605FA06F10843E062F0BD816841F0C0
:100A600080418160704700B52DED020B81B00122FD
:100A7000694601A808F07DFC9DED000A0EBD00004E
:100A800000B59BB001213D4806F01CF90121080288
:100A900006F038F901200A9003208DF82C00002080
:100AA0008DF82F000AA9364801F078F801210802D4
:100AB00006F038F900214FF4807006F033F9002079
:100AC00006904FF470600990002008904FF4803039
:100AD000079006A8FFF70EFF002000908DF8040095
:100AE00001208DF8050000200290049001208DF86F
:100AF000140069462348FFF72BFF07230122082132
:100B00002048FFF74FFF01211E48FFF716FF012184
:100B10001C48FFF707FF01211A48FFF7DFFE1A48BC
:100B200000F0C2FD0520109000200C900F9017904F
:100B300016480E90002019904FF400501490C010E9
:100B40001290801015900F484C300D9000201A9094
:100B50004FF400601390002011904FF40030169075
:100B60000CA9094800F0A0FE0121074800F090FD03
:100B70000448FFF773FF1BB000BD000002004000F7
:100B8000000402400020014010640240F4F2002002
:100B900010B52DED068B0AF0B5F80446BB48006889
:100BA00058B1BA480068201A00EE100AF8EE400A60
:100BB0009FEDB71A80EE810A01E0B7EE000AB54852
:100BC00080ED000AB1480460B34890ED040AB348D0
:100BD000D0ED040A30EE608AB14890ED000A38EE9C
:100BE000400AAC48D0ED000A80EE201AF0EE419A9F
:100BF000AC4890ED000AA748D0ED000A30EE200A7C
:100C000090ED001AC1EE000AA74890ED000A39EEF7
:100C1000C01A90ED000A00EE810AF0EE409AC0ED95
:100C2000009AA24890ED0C0A20EE080AA04880ED38
:100C3000010A9E4890ED0E0A20EE290A9C4880ED9C
:100C4000030A90ED020A9948D0ED0D0A00EE880AD9
:100C5000974880ED020AD0ED020AB0EE600A95488E
:100C6000D0ED000AB1EE601AD0ED000A01F016FED8
:100C70008F4880ED020A8A4880ED008A8C4890ED0A
:100C8000010AD0ED030A30EE200AD0ED020A30EE60
:100C9000200A80ED040AD0ED040AB0EE600A9FED50
:100CA000861ADFED860A01F0F9FD814880ED040A1D
:100CB000834890ED040A7948D0ED050A70EE608A09
:100CC000804890ED000A38EEC00A7248D0ED000A64
:100CD00080EE201AB0EE41AA724890ED000A6D48ED
:100CE000D0ED000A30EE200A90ED001AC1EE000AA5
:100CF000754890ED000A3AEE401A90ED000A00EEB9
:100D0000810AB0EE40AA80ED00AA684890ED0F0A73
:100D100020EE280A6D4880ED010A644890ED110A22
:100D200020EE0A0A694880ED030A90ED020A5F4846
:100D3000D0ED100A00EEA80A644880ED020AD0ED5A
:100D4000020AB0EE600A5B48D0ED000AB1EE601A0C
:100D5000D0ED000A01F0A2FD5C4880ED020A59487E
:100D6000C0ED008A594890ED010AD0ED030A30EE3B
:100D7000200AD0ED020A30EE200A80ED040AD0ED00
:100D8000040AB0EE600A9FED4C1ADFED4C0A01F048
:100D900085FD4E4880ED040A4D4890ED030A3F481A
:100DA000D0ED060A30EE609A4A4890ED000A39EE1E
:100DB000400A3848D0ED000A80EE201AF0EE41AA31
:100DC000384890ED000A3348D0ED000A30EE200A92
:100DD00090ED001AC1EE000A3F4890ED000A3AEE8D
:100DE000C01A90ED000A00EE810AF0EE40AAC0EDB4
:100DF00000AA2E4890ED120A20EE090A374880ED2D
:100E0000010A2A4890ED140A20EE2A0A334880EDA0
:100E1000030A90ED020A2548D0ED130A00EE890A74
:100E20002E4880ED020AD0ED020AB0EE600A214899
:100E3000D0ED000AB1EE601AD0ED000A01F02EFDEF
:100E4000264880ED020A234880ED009A234890ED61
:100E5000010AD0ED030A30EE200AD0ED020A30EE8E
:100E6000200A80ED040AD0ED040AB0EE600A9FED7E
:100E7000121ADFED120A01F011FD184880ED040A84
:100E800000F092FABDEC068B10BD00006402002059
:100E9000002474496802002040FC00201CE6002069
:100EA00020020020600200202C020020BCE500206F
:100EB00078FB00201C020020000096C3000096432F
:100EC00054FC002024020020300200208CFB002073
:100ED000E0E700202802002034020020A0FB0020D0
:100EE0001CB500BF01AB012233A1384802F0DCFD84
:100EF00060E001A800231A4619460090334802F02A
:100F000013FE33480078012843D132480068B0F519
:100F1000487F0CD22F480068401C2E4908604FF4CF
:100F200096731A461946184605F0D4FC42E0012093
:100F300029490870FFF72CFE284890ED000AF3EECF
:100F4000090AB4EEE00AF1EE10FA1ADA90ED000A9E
:100F5000FBEE090AB4EEE00AF1EE10FA11D990EDB9
:100F6000010AF3EE090AB4EEE00AF1EE10FA08DA2B
:100F700090ED010AFBEE090AB4EEE00AF1EE10FA78
:100F800018D800231A461946184605F0A3FC00BFDE
:100F9000FEE700200F4908600F49087000231A4639
:100FA0001946184605F096FC01F0A8FA05F05CFC1D
:100FB00002F0E4F99DE7000041747469747564659A
:100FC000496E6E65725F70726F630000D0E600203C
:100FD0000C01002058010020270100201CE6002001
:100FE00010B52DED048B09F08DFE044664480068B1
:100FF00058B163480068201A00EE100AF8EE400A63
:101000009FED601A80EE810A01E0B7EE000AF0EE73
:10101000409A5B4804605C4890ED000A5B48D0ED64
:10102000000A30EE600A5A48D0ED000A30EEC08A5D
:10103000584890ED000A20EE080A574880ED010A52
:10104000544890ED020A5548D0ED000A78EE600A47
:1010500020EE200AC0EE290A4F48C0ED030A4F488F
:1010600080ED008A4C4890ED010AD0ED030A30EE85
:10107000200A80ED040AD0ED040AB0EE600A9FED6C
:10108000481ADFED480A01F009FC434880ED040AE4
:101090003D4890ED010A3D48D0ED010A30EE600A6E
:1010A0003B48D0ED010A70EEC08A3A4890ED030A41
:1010B00020EE280A3C4880ED010A364890ED050AEA
:1010C0003A48D0ED000A78EEE00A20EE200AC0EEA1
:1010D000290A3548C0ED030A3448C0ED008A324879
:1010E00090ED010AD0ED030A30EE200A80ED040AEB
:1010F000D0ED040AB0EE600A9FED291ADFED290A4F
:1011000001F0CCFB284880ED040A214890ED020A4A
:101110001D48D0ED020A30EE609A1E4890ED060A96
:1011200020EE090A224880ED010A1A4890ED080ACB
:101130002048D0ED000A79EE600A20EE200AC0EEC9
:10114000290A1B48C0ED030A1A4880ED009A184886
:1011500090ED010AD0ED030A30EE200A80ED040A7A
:10116000D0ED040AB0EE600A9FED0D1ADFED0D0A16
:1011700001F094FB0E4880ED040ABDEC048B10BD19
:1011800094020020002474491CE600201401002071
:1011900068E60020BCE5002040FC00207C02002026
:1011A00000409CC600409C4654FC00207802002071
:1011B00068FC0020800200200EB500BF0AE0FFF7A7
:1011C0000FFF02A8002105230A46CDE900100846BA
:1011D00003F02EFCF3E70000F0EE400A9FED1C1A2E
:1011E000B0EE410A1B490968491E1B4A02EB810106
:1011F000C1ED000A00200BE0174A411C02EB8101FF
:1012000091ED001A114601EB800181ED001A401C9E
:1012100010490968491E8142EEDC002009E00E49B0
:1012200001EB800191ED001A31EE001AB0EE410A97
:10123000401C084909688842F1DB064991ED001A13
:10124000B8EEC11AC0EE011AB0EE610A7047000094
:10125000000000000402002008F300201FB56846CB
:1012600005F070FD019804B010BD00002DED028B5B
:1012700084B000BF37E000F06DFDB0EE408AFFF7AC
:10128000ABFF194880ED030A90ED030ADFED170A62
:10129000B4EEE00AF1EE10FA19D2154800780128F0
:1012A00015D001201049886403A8002164230A4650
:1012B000CDE90010084603F0BBFB03A8002164231E
:1012C0000A46CDE90010084603F0B2FB02E0002018
:1012D0000549886403A8002164230A46CDE900106B
:1012E000084603F0A5FBC6E71CE60020CDCC2C4148
:1012F0000C01002010B54FF4E13006F0EBFF10BDFB
:1013000000BFFEE710B500F01FF800F019F810BD9F
:1013100010B5002400BF00BFFEF756FF044600BF13
:1013200000BF1021054801F087FE00BF00BF204626
:10133000FEF74EFF00BF00BF10BD0000A804002054
:1013400010B5FFF7E5FF10BD10B500200249086099
:1013500000F00AF810BD00001400002001490860E8
:10136000704700001400002010B5FFF777FF044617
:101370000848006840F0807006490860002006496F
:1013800048600846006840F0010008602046FFF70A
:10139000E5FF10BDFCED00E0001000E001494868E9
:1013A00070470000001000E010B55E484078032848
:1013B0006FD15D4890ED040AB1EE400A5B48D0ED74
:1013C000040A30EE600A5A48D0ED040A30EE200AD2
:1013D0005848D0ED040A30EE600ADFED570A30EECF
:1013E000200ABCEEC00A554880ED000A4E4890ED38
:1013F000040A4E48D0ED040A30EE600A4C48D0EDA5
:10140000040A30EE200A4B48D0ED040A30EE200AE0
:10141000DFED490A30EE200ABCEEC00A474880EDF5
:10142000010A414890ED040A4048D0ED040A30EE2C
:10143000200A3F48D0ED040A30EE200A3D48D0EDA6
:10144000040A30EE600ADFED3C0A30EE200ABCEE02
:10145000C00A3A4880ED020A334890ED040AB1EE22
:10146000400A3248D0ED040A30EE200A3048D0ED70
:10147000040A30EE200A2F48D0ED040A30EE200A8C
:10148000DFED2D0A30EE200ABCEEC00A2B4880EDBD
:10149000030A2A480068B0F5617F03D94FF46170F0
:1014A0002649086025484068B0F5617F03D94FF4AC
:1014B00061702249486021488068B0F5617F03D996
:1014C0004FF461701D4988601C48C068B0F5617FA9
:1014D00003D94FF461701949C86018480068322870
:1014E00002D232201549086014484068322802D2DE
:1014F00032201249486011488068322802D23220D6
:101500000E4988600D48C068322802D232200B494B
:10151000C8600A4CE368A2686168206805F0DAF9DF
:1015200010BD00000C01002078FB00208CFB002087
:10153000B4FB0020A0FB00200080224498E600209D
:101540000EB500BF0EE00848084991ED000A08F00A
:101550003DFE02A8002105230A46CDE900100846F9
:1015600003F066FAEFE70000D8E800202801002029
:1015700010B502F00FF906F0F5FB02F021F910BDED
:1015800010B502F007F900200C4908700C490D480D
:1015900000F03AF950B10A490A4800F05FF800211A
:1015A000084800F075F8002004490870044905480F
:1015B00000F054F802F004F910BD0000EA00002029
:1015C00000802020A060024010B502F0E3F80B4933
:1015D0000B4800F019F970B14FF02051084800F0A5
:1015E0003DF80021064800F053F8012240F2266140
:1015F000044806F0FDFA02F0E3F810BD0080002870
:10160000B86002400050004010B502F0C3F80B492A
:101610000B4800F0F9F868B10A49094800F01EF8D3
:101620000021074800F034F8012240F22661064804
:1016300006F0DEFA02F0C4F810BD000000802020A1
:10164000A0640240000020200014014010B502F008
:10165000A1F806F062FB02F0B3F810BD0246094B98
:101660009A4201D2084801E00648103801F00053C0
:101670001BB1064B0B40C36002E0044B0B40836080
:101680007047000010640240006002407D0F7D0F33
:1016900021B1026842F00102026003E0026822F018
:1016A0000102026070470000016821F00101016041
:1016B0000021016041608160C160016121214161BF
:1016C0004A49884204D13D21484A103A91608CE051
:1016D00046491831884205D14FF47461434A103AA3
:1016E000916082E041493031884205D14FF4741154
:1016F0003E4A103A916078E03C494831884205D131
:101700004FF07461394A103A91606EE037496031A8
:10171000884204D13649354A103AD16065E03349F0
:101720007831884204D13349304A103AD1605CE0C4
:101730002E499031884204D12F492C4A103AD16069
:1017400053E02A49A831884205D14FF03D51274A3C
:10175000103AD16049E02949884204D13D21274A05
:10176000083A116041E025491831884205D14FF40B
:101770007461224A083A116037E0204930318842CA
:1017800005D14FF474111D4A083A11602DE01B4930
:101790004831884205D14FF07461184A083A116007
:1017A00023E016496031884204D11149134A121FBF
:1017B00011601AE011497831884204D10D490F4A6D
:1017C000121F116011E00D499031884204D10A497D
:1017D0000A4A121F116008E00849A831884204D162
:1017E0004FF03D51054A121F1160704710600240D2
:1017F0003D000020400F002000003D20106402400A
:101800000146486880B2704770B502460020002447
:101810000025124EB24201D2114B01E00F4B103B9A
:10182000104E0E4036B11E2606EAD124166806EA8E
:10183000040502E0566906F0800501F000560EB17D
:101840005C6800E01C68084E344004EA010616B1EA
:101850000DB1012000E0002070BD000010640240C6
:10186000006002403C0F3C0F7D0F7D0F10B501F072
:1018700080034BB122B1436943F08003436103E02D
:10188000436923F08003436180290BD02AB10368A8
:1018900001F01E042343036004E0036801F01E040A
:1018A000A343036010BD000010B500220268134B73
:1018B0001A40CC680B6823434C6923438C6923434B
:1018C000CC6923430C6A23434C6A23438C6A234329
:1018D0004C6B23438C6B23431A430260426922F012
:1018E0000702D1E90B3423431A4342610B69436079
:1018F0004B6883608B68C36010BD00003F801CF0A4
:10190000416070470EB500BF02AB01221CA1204808
:1019100002F0CAF833E002A800231A4619460090E4
:101920001B4802F001F91B480078A0B114221A49A3
:101930001A48FEF75FFC1848001F00681749091F86
:101940000860D1E90401CDE900011448001F0FC867
:1019500008F0AEF813E0142211491048FEF74AFCD3
:101960000F48001F00680D49091F0860D1E90401F4
:10197000CDE900010948001F0FC807F04DFDCAE777
:10198000446174614465616C5F70726F6300000054
:1019900048E700202C01002034F70020A4E70020B5
:1019A0005CEE00207047000030B10749096841F43F
:1019B0008061054A116005E00349096821F48061EE
:1019C000014A116070470000003C024070B50446B7
:1019D0000A460026092502B909E0012A01D11602AA
:1019E00005E0022A01D1160201E04FF4407600F032
:1019F0009FF80546092D28D11548006820F440704D
:101A000013490860084600683043086008460068CB
:101A100020F0F80008600846006844F0020108431E
:101A20000B4908600846006840F48030086000F008
:101A30007FF805460648006820F002000449086067
:101A40000846006820F0F8000860284670BD0000D5
:101A5000103C024009201349096801F48031B1F5B6
:101A6000803F01D101201CE00E49096801F01001FE
:101A700009B1062015E00B49096801F4807109B12C
:101A800002200EE00749096801F0EF0109B10720C3
:101A900007E00449096801F0020109B1082000E0EB
:101AA000092070470C3C02400348006840F00040A9
:101AB0000149086070470000103C024030B5024602
:101AC0000C46092500F034F80546092D19D10E48B9
:101AD000006820F440700C4908600846006840F433
:101AE000007008600846006840F00100086014605B
:101AF00000F01EF805460448006820F00100024985
:101B00000860284630BD0000103C024005480068CF
:101B100000F0004028B1044802490C39086003482D
:101B200008607047103C024023016745AB89EFCD48
:101B300008B509200090FFF78DFF009002E0FFF745
:101B400089FF00909DF800000128F8D09DF8000062
:101B500008BD000010B5012204219FED060A0648C9
:101B600008F0AEF8012204219FED020A034808F0B4
:101B7000A7F810BD9A99193E44010120C401012023
:101B800001B52DED020B6A46002104E013780370C5
:101B9000521C401C491C0429F8D30EBDF0B50A465E
:101BA00000210023002400BF3DE0012505FA01F3D8
:101BB000156805EA03049C4234D105684F000326EA
:101BC000BE40B543056015794E00B5400668354303
:101BD00005601579012D02D01579022D16D1856881
:101BE0004F000326BE40B543856055794E00B54091
:101BF000866835438560456801268E40B54345605B
:101C0000456896798E40B6B235434560C5684F0049
:101C10000326BE40B543C560D5794E00B540C668C1
:101C20003543C560491C1029BFD3F0BDF0B5002372
:101C300000244D07ED0E02FA05F3CE1000F1200549
:101C400055F826504E07F70E0F26BE40B543CF106D
:101C500000F1200646F82750CE1000F1200555F877
:101C6000265045EA0304CE1000F1200545F8264031
:101C7000F0BD418370470183704700001CB501210E
:101C8000072005F01FF84FF44070009001208DF8F8
:101C9000040000208DF8060003208DF805000120C7
:101CA0008DF8070069462848FFF778FF0E2000905E
:101CB00001208DF8040000208DF8060003208DF827
:101CC000050001208DF8070069462048FFF766FFF0
:101CD0008020009001208DF8040003208DF805007D
:101CE00001208DF8070069461948FFF757FF1020BB
:101CF000009000208DF8040003208DF805000120DD
:101D00008DF8070069461248FFF748FF3020009021
:101D100000208DF8040003208DF8050001208DF8C7
:101D2000070069460948FFF739FF4FF4407106483C
:101D3000FFF7A1FF0C210548FFF79DFF0221034893
:101D4000FFF797FF1CBD000000040240000802409E
:101D5000000002400848008800EE900AF8EE600A91
:101D6000DFED061A80EEA11ADFED050A61EE200A0A
:101D7000B0EE600A70470000F4F2002000008045D9
:101D80006CE7694100BFFEE718B50246002003E09A
:101D9000135C0DF80030401C8842F9DB9DED000A11
:101DA00018BD10B500F000FE642007F017FF00F02A
:101DB00093FD642007F012FF10BD000010B52DED5B
:101DC0000C8BFE4800F038FBFC4890ED050ADFED77
:101DD000FC0A20EE200ADFEDFB0A80EE201AB0EEAE
:101DE000418A90ED040ADFEDF60A20EE200ADFEDCD
:101DF000F50A80EE201AF0EE418A90ED030ADFED3D
:101E0000F00A20EE200ADFEDEF0A80EE201AB0EE95
:101E1000419A90ED020AF0EE402A90ED010AB0EEF0
:101E2000402A90ED000AF0EE401AB0EE481AF0EEAB
:101E3000680AB0EE490A00F0BDFEE34890ED000AE2
:101E4000E24880ED000AE24890ED000ADF4880EDAC
:101E5000010AE04890ED000ADC4880ED020ADE4805
:101E600090ED000AD94880ED030A90ED000A20EEBB
:101E7000000ADA4880ED000AD44890ED000AD0ED5F
:101E8000010A20EE200AD64880ED000ACF4890EDE6
:101E9000000AD0ED020A20EE200AD24880ED000AA6
:101EA000CA4890ED000AD0ED030A20EE200ACE4881
:101EB00080ED000AC54890ED010A20EE000ACB48EB
:101EC00080ED000AC14890ED010AD0ED020A20EE33
:101ED000200AC74880ED000ABC4890ED010AD0ED09
:101EE000030A20EE200AC34880ED000AB74890EDAF
:101EF000020A20EE000AC04880ED000AB34890EDC7
:101F0000020AD0ED030A20EE200ABC4880ED000A48
:101F1000AE4890ED030A20EE000AB94880ED000AB1
:101F2000AE4890ED000AB148D0ED000A70EE200AEC
:101F3000B7EE000AB0EE001A11EE200AB14880EDAB
:101F4000000AAB4890ED000AA748D0ED000A30EE39
:101F5000600AF0EE000A20EE200AAA4880ED010A8D
:101F6000A44890ED000A9F48D0ED000A30EE200A08
:101F7000F0EE000A20EE200AA24880ED020A9C48FA
:101F800090ED000A9848D0ED000A30EE200AF0EEFD
:101F9000000A20EE200A9B4880ED030A8F4890ED4E
:101FA000000A9548D0ED000A70EE200AB7EE000A4C
:101FB000B0EE001A11EE200A924880ED040A8F4814
:101FC00090ED000A8648D0ED000A30EE600AF0EE8F
:101FD000000A20EE200A8B4880ED050A854890ED26
:101FE000000A8048D0ED000A30EE600AF0EE000AE8
:101FF00020EE200A834880ED060A804890ED000A12
:102000007748D0ED000A30EE200AF0EE000A20EE0C
:10201000200A7C4880ED070A704890ED000A784855
:10202000D0ED000A70EE200AB7EE000AB0EE001AFA
:1020300011EE200A734880ED080A684890ED000A06
:102040006A48D0ED000A30EE200A6B48D0ED000A55
:1020500030EE600A6A48D0ED000A30EE600A6A4845
:1020600080ED000A624890ED000A5F48D0ED000A5A
:1020700030EE200AF0EE000A20EE200A624880EDE1
:10208000010A5C4890ED000A5648D0ED000A30EE97
:10209000600AF0EE000A20EE200A5B4880ED020A9A
:1020A000534890ED000A5048D0ED000A30EE600A27
:1020B000F0EE000A20EE200A534880ED030A47485C
:1020C00090ED000A4948D0ED000A30EE600A4A4817
:1020D000D0ED000A30EE200A4948D0ED000A30EE7B
:1020E000600A494880ED040A444890ED000A3C48E3
:1020F000D0ED000A30EE200AF0EE000A20EE200AB1
:10210000414880ED050A3B4890ED000A3548D0ED86
:10211000000A30EE200AF0EE000A20EE200A3A48CB
:1021200080ED060A354890ED000A2D48D0ED000AF2
:1021300030EE600AF0EE000A20EE200A324880ED10
:10214000070A264890ED000A2848D0ED000A30EE34
:10215000600A2948D0ED000A30EE600A2848D0ED28
:10216000000A30EE200A284880ED080A134890ED56
:10217000000ADFED260A80EE201A254880ED001ABD
:102180000E4890ED010ADFED210A80EE201A20486A
:1021900080ED011A094890ED020ADFED1C0A80EE7D
:1021A000201A1B4880ED021A044890ED030ADFED67
:1021B000190A20EE200A184830E00000F4E8002058
:1021C000DB0F49400000344394030020E4E8002082
:1021D000980300209C030020A00300209801002009
:1021E0009C010020A0010020A4010020A8010020E3
:1021F000AC010020B0010020B4010020B801002093
:10220000BC010020B4E8002090E8002000008046D7
:10221000D8E800200000C8421CE6002080ED050A36
:102220007A4890ED040A5FED050A20EE200A78480E
:1022300080ED040A754890ED050A5FED0A0A20EE6C
:10224000200A734880ED060A724890ED010A20EEDC
:10225000000AD0ED020A90ED021A00EE810AF7EEB4
:10226000000AB0EE001A41EE400A10EE901A08463D
:10227000FEF7B3F841EC1B0B664890ED000AD0ED79
:10228000010A20EE200AD0ED020A90ED031A00EEBA
:10229000810AF0EE000A20EE200A10EE101A08461D
:1022A000FEF79BF841EC1C0BB0EE4B1AF0EE6B1AEC
:1022B000B0EE4C0AF0EE6C0A06F0EEFCB0EE40AA6E
:1022C000F0EE60AA9FED540B53EC102B51EC1A0B5F
:1022D000FDF7A2FF41EC190B9FED510B53EC102BB6
:1022E000FEF70CF841EC180BFEF78AF848494860F5
:1022F0004848D0ED000A90ED021A60EE810A90ED98
:10230000011AD0ED031A41EE610AB0EE001A60EE38
:10231000810AB0EE600A08F0FBFCB1EE400A5FED06
:10232000570A20EE200A5FED5A0A80EE201A38483C
:1023300080ED001A3C4890ED000AF8EE000A20EE0D
:10234000200AD0ED000A20EE200A3848D0ED000A1D
:10235000B0EE001A60EE810A90ED001A00EEC10A9C
:10236000F7EE000A30EE200A10EE101A0846FEF7CB
:1023700034F841EC1C0B2E4890ED000AF0EE000AF8
:1023800020EE200A2848D0ED000A20EE200A294835
:10239000D0ED000AB0EE001A60EE810A234890EDFD
:1023A000001A00EE810A10EE101A0846FEF715F822
:1023B00041EC1D0BB0EE4C1AF0EE6C1AB0EE4D0A6B
:1023C000F0EE6D0A06F068FCB0EE40BAF0EE60BACE
:1023D00051EC1B0B81F0004141EC1A0B9FED0E0BF1
:1023E00053EC102BFDF718FF41EC190B9FED0C0B74
:1023F00053EC102BFDF782FF41EC180BFEF700F8B1
:1024000003498860BDEC0C8B10BD0000F4E800208F
:102410001CE60020E4E80020000000000080664088
:1024200000000060FB2109409C030020A003002065
:10243000980300209403002030B585B0054603A81A
:1024400000F030F96946881D00F0E2FA00241BE034
:10245000032C0ADA3DF9140000EE100AB8EEC00AA7
:1024600005EB840080ED000A0DE03DF9140000EE5C
:10247000100AB8EEC00ADFED120A80EE201A05EB52
:10248000840080ED001A641C062CE1DBBDF90C0011
:1024900000EE100AB8EEC00A85ED060ABDF90E007E
:1024A00000EE100AB8EEC00A85ED070ABDF910006B
:1024B00000EE100AB8EEC00A85ED080A05B030BD7E
:1024C000333383411CB500BF01AB012207A10A4889
:1024D00001F0EAFA09E001A800231A461946009023
:1024E000054801F021FBFFF769FCF4E7494D555F12
:1024F00070726F6300000000A8E6002000203D49D4
:1025000008709FED3D0A3D4880ED020A9FED3A0AB2
:102510003B4880ED020A9FED380A3A4880ED020AF6
:102520009FED350A384880ED020A9FED330A37489F
:1025300080ED020A9FED300A354880ED020A9FEDDA
:102540002E0A344880ED020A9FED2B0A324880EDB6
:10255000020A9FED290A314880ED000A9FED260A04
:102560002F4880ED000A9FED240A2E4880ED000AD6
:102570009FED210A2C4880ED000A9FED1F0A2B4891
:1025800080ED000A9FED1C0A294880ED000A9FEDAE
:102590001A0A284880ED000A9FED170A264880EDA8
:1025A000000A9FED150A254880ED000A9FED120AEA
:1025B000234880ED000A9FED100A224880ED000AB2
:1025C0009FED0D0A204880ED000A9FED0B0A1F4881
:1025D00080ED000A9FED080A1D4880ED000A9FED7E
:1025E000060A1C4880ED000A9FED030A1A4880ED98
:1025F000000A7047740200200000000078FB0020F1
:102600008CFB0020A0FB002018FC00202CFC0020EC
:10261000F0FB002004FC0020B4FB0020240200207A
:1026200020020020280200202C020020300200207E
:10263000340200204C02002038020020500200200A
:102640003C020020540200204002002044020020EE
:1026500058020020480200205C02002003B56A46B0
:10266000002004E013780B70521C491C401C042805
:10267000F8D30CBD03460022002103E033F911001A
:102680000244491C0A29F9DB0A2092FBF0F210B23D
:1026900070470000024A127820F8121070470000BC
:1026A000C70100201FB504464FF400716848FFF7CA
:1026B000E0FA02AA0621482004F054FC4FF400710D
:1026C0006348FFF7D8FA9DF808009DF8091040EA22
:1026D0000120404200B2ADF800009DF80A009DF8CC
:1026E0000B1040EA0120404200B2ADF802009DF814
:1026F0000C009DF80D1040EA012000B2ADF8040076
:10270000BDF900105348FFF7C5FFBDF9021051484D
:102710001430FFF7BFFFBDF904104E482830FFF713
:10272000B9FF4D480078401C0A2190FBF1F201FBF3
:102730001200494908704748FFF79CFF4749B1F923
:102740000010401A00EE100AB8EEC00A4448D0ED5E
:10275000000A20EE200ABDEEC00A10EE100A00B2F8
:1027600020803C481430FFF785FF3E49B1F9001046
:10277000401A00EE100AB8EEC00A3B48D0ED000A3D
:1027800020EE200ABDEEC00A10EE100A00B26080F2
:1027900030482830FFF76EFF3449B1F90010401A75
:1027A00000EE100AB8EEC00A3148D0ED000A20EE63
:1027B000200ABDEEC00A10EE100A00B2A0802088E8
:1027C0002C49088060882C490880A0882B49088003
:1027D0002B480078D8B3B4F900002A49B1F90010A9
:1027E000884202DA208827490880B4F90200264985
:1027F000B1F90010884202DA608823490880B4F9F0
:1028000004002249B1F90010884202DAA0881F4969
:102810000880B4F900001E49B1F90010884202DDB9
:1028200020881B490880B4F902001A49B1F9001048
:10283000884202DD608817490880B4F9040016490F
:10284000B1F90010884202DDA088134908801FBD3D
:102850000008024054E90020C7010020C801002000
:10286000D0010020CA010020D4010020CC010020AA
:10287000D8010020C0010020C2010020C4010020B6
:10288000E8010020E2010020E4010020E601002030
:10289000DC010020DE010020E0010020B4EEE00AAF
:1028A000F1EE10FA01DDB0EE600AB4EEC10AF1EE0D
:1028B00010FA01D2B0EE410A70470346002200210F
:1028C00003E033F911000244491C0A29F9DB0A200C
:1028D00092FBF0F210B270472DE9FF470025002669
:1028E0000027A846A946AA4600202749088027496C
:1028F000088027490880012026490870002407E045
:10290000642007F0A5F9694602A800F081F8641C6C
:10291000322CF5D3002419E0C82007F099F9694654
:1029200002A800F075F8BDF908000544BDF90A00D9
:102930000644BDF90C000744BDF900008044BDF910
:1029400002008144BDF904008244641CB4F57A7F1E
:10295000E2D34FF47A7095FBF0F000B20A49088098
:102960004FF47A7096FBF0F000B2084908804FF4FB
:102970007A7097FBF0F000B2054908800020054905
:102980000870BDE8FF870000760100207801002074
:102990007A01002068010020024A127820F8121003
:1029A000704700007C01002010B580216B2000F0F2
:1029B000EBF86E2007F012F90721682000F0E4F828
:1029C0006E2007F00BF900216B2000F0DDF80120EC
:1029D00007F004F900211C2000F0D6F8012007F0D0
:1029E000FDF802211D2000F0CFF8012007F0F6F8D5
:1029F00018211B2000F0C8F8012007F0EFF8002193
:102A00006C2000F0C1F8012007F0E8F810BD0000CC
:102A100070B504460D464FF480714E48FFF729F912
:102A20004D4A0E213B2004F09DFA4FF48071494835
:102A3000FFF721F948484078474A127840EA0220D7
:102A400001B24648FFF7A8FF4348C078424A92784F
:102A500040EA022001B241481430FFF79DFF3E4892
:102A600040793D4A127940EA022001B23B482830C1
:102A7000FFF792FF3848407A374A127A40EA02203C
:102A800001B236485030FFF787FF3348C07A324AE8
:102A9000927A40EA022001B230486430FFF77CFFAE
:102AA0002D48407B2C4A127B40EA022001B22B4881
:102AB0007830FFF771FF2A480078401C0A2190FB0C
:102AC000F1F201FB12002649087024485030FFF74C
:102AD000F4FE2449088021486430FFF7EEFE2249C5
:102AE00008801E487830FFF7E8FE204908801D481E
:102AF00000881F490988401A00B220801A480088BF
:102B00001C490988401A00B26080184800881A4998
:102B10000988401A00B2A0801048FFF7CEFE17497E
:102B200008800E481430FFF7C8FE154908800B488E
:102B30002830FFF7C2FE134908801048B0F90000A2
:102B400028800F48B0F9000068800846B0F90000FE
:102B5000A88070BD0008024080E80020F4E7002053
:102B60007C0100207E0100208001002082010020E5
:102B700076010020780100207A01002084010020E5
:102B8000860100208801002070B505460C464FF4F0
:102B900080710748FFF76DF8284604F0C9F9204610
:102BA00004F0C6F94FF480710148FFF764F870BD76
:102BB0000008024000B52DED068BB0EE403AF0EE75
:102BC000603AB0EE414AF0EE615AF0EE424AB0EEA1
:102BD000625AF5EEC05AF1EE10FA09D1F5EEC04A8C
:102BE000F1EE10FA04D1B5EEC05AF1EE10FA7DD034
:102BF00065EEA50A44EEA40A45EE050AB0EE600AA9
:102C000007F02AFEF0EE402A25EEA20AF0EE405A26
:102C100024EEA20AF0EE404A25EE220AB0EE405A17
:102C2000A94890ED000AA948D0ED000A20EE200A3C
:102C3000A748D0ED000AA74890ED001AF0EE407AC0
:102C400040EEC17AA24890ED000A9F48D0ED000AFC
:102C500020EE200A9F48D0ED000A9C4890ED001A13
:102C6000B0EE408A00EE818A9948D0ED000A90EDDE
:102C7000001AB6EE000A10EE810A9448D0ED000A60
:102C800090ED001AF0EE408A40EE818A24EEA80A08
:102C9000B0EE409A05EE489A25EE270AF0EE409AEB
:102CA00045EEE89A25EE880AB0EE40AA04EEE7AABF
:102CB000894890ED000AB5EEC00AF1EE10FA40DD49
:102CC00090ED000A60EE090A844890ED000A9FED3D
:102CD000841A00EE810A80ED000A7F4890ED000A18
:102CE00060EE290A7F4890ED000A00E051E09FED78
:102CF0007C1A00EE810A80ED000A774890ED000A08
:102D000060EE0A0A784890ED000A9FED751A00EE11
:102D1000810A80ED000A714890ED000A33EE000A46
:102D2000B0EE403A6F4890ED000A33EE800AF0EEC4
:102D3000403A6D4890ED000A34EE000AB0EE404A89
:102D40000EE09FED6A0A654880ED000A9FED670A74
:102D5000644880ED000A9FED650A634880ED000A33
:102D60006348D0ED000AB0EE430A00EE890AB0EEE7
:102D7000403AD0ED000AB0EE630A00EEA90AF0EE88
:102D8000403AD0ED000AB0EE440A00EE8A0AB0EEF6
:102D9000404A9FED580A23EE000AB0EE403A9FEDFC
:102DA000550A23EE800AF0EE403A9FED520A24EED7
:102DB000000AB0EE404A464890ED006A4248D0ED25
:102DC000006A444890ED007AB1EE660A20EE030AEC
:102DD00007EE630A3D48D0ED000A00EEC40A3C4805
:102DE000D0ED000A30EE200A80ED000A26EE030A3C
:102DF00007EE040A3548D0ED000A00EEE30A324837
:102E0000D0ED000A30EE200A80ED000A26EE230AFB
:102E100006EEC40A2D48D0ED000A00EE830A2D48C4
:102E2000D0ED000A30EE200A80ED000A26EE040AFA
:102E300006EEA30A07EE430A2448D0ED000A30EE5E
:102E4000200A80ED000A2248D0ED000A90ED001A19
:102E500060EE810A1C4890ED001AD0ED001A41EE98
:102E6000210A1C4890ED001AD0ED001A41EE210A0B
:102E7000164890ED001AD0ED001A41EE210AB0EE8E
:102E8000600A07F0E9FCF0EE402A114890ED000AD4
:102E900020EE220A80ED000A0B4890ED000A20EE99
:102EA000220A80ED000A0B4890ED000A20EE220A6B
:102EB00080ED000A054890ED000A20EE220A80ED20
:102EC000000ABDEC068B00BD98030020A003002083
:102ED000940300209C03002090030020A403002002
:102EE0006F12033BA8030020AC0300200000000089
:102EF0008C0300206F12833A2DE9F0430546002031
:102F000000230024A1F1010C42F82C5000BF06E080
:102F100000F1010C52F82CC042F820C0401CA1F175
:102F2000010C8445F4D800201DE0002314E052F881
:102F3000238003F1010C52F82CC0E0450BDD52F860
:102F4000237003F1010C52F82CC042F823C003F1A6
:102F5000010C42F82C705B1CA1F1010CACEB000CD5
:102F60009C45E4D8401CA1F1010C8445DDD8D2E990
:102F7000008CACEB0806012013E000F1010C52F8C4
:102F80002CC052F82080ACEB080CB44508DD00F1F1
:102F9000010C52F82CC052F82080ACEB0806044615
:102FA000401CA1F1010C8445E7D89FED210A01F1F5
:102FB000010C0CEBDC7904F10108B8EB690F19D9AD
:102FC00000200AE052F820C000EE90CAF8EEE00AB5
:102FD00070EE800AB0EE600A401CA042F2D904F103
:102FE000010C00EE90CAF8EE600A80EE201AB0EEF6
:102FF000410A1AE0601C0AE052F820C000EE90CAB4
:10300000F8EEE00A70EE800AB0EE600A401C8842DA
:10301000F2D3A1EB040CACF1010C00EE90CAF8EE77
:10302000600A80EE201AB0EE410ABDE8F08300008D
:103030000000000000BFFEE730B505460C46224602
:103040000021284600F001F830BD2DE9F041054689
:103050000B4694460027002402E03F021F43641CF5
:10306000042CFAD3604605F00306294646B13446DF
:1030700003E001F8013B401E641C08B1042CF8D3A6
:103080000A4601E080C2001F0428FBD2114602E07C
:1030900001F8013B401E0028FAD1BDE8F0817047DD
:1030A00070B5002100230F22C4781CB3174C24688C
:1030B00004F4E064C4F5E064C4F30721C1F104043E
:1030C000E3B20A4144789C40E1B284781440214341
:1030D0000C07210E0E4C05786155047804F01F058D
:1030E0000124AC4005786D11AD0005F1E025C5F86F
:1030F000004109E0047804F01F050124AC40054DAF
:103100000678761145F8264070BD00000CED00E011
:1031100000E400E080E100E002490143024A11605E
:10312000704700000000FA050CED00E010B52DED31
:10313000028BB0EE408A7C4880ED028A90ED020A54
:103140007A48D0ED000A20EE200A7948D0ED000A36
:1031500060EE200A774890ED001A774890ED000A5B
:1031600000EE810A754880ED000A6F4890ED020A72
:103170007348D0ED000A20EE200A6D48D0ED000A19
:1031800060EE200A6F4890ED001A6F4890ED000A3B
:1031900000EE810A6D4880ED000A634890ED020A56
:1031A0006B48D0ED000A20EE200A6148D0ED000AFD
:1031B00060EE200A674890ED001A674890ED000A1B
:1031C00000EE810A654880ED000A574890ED020A3A
:1031D000D0ED010A30EE600A564880ED000A5248F0
:1031E00090ED020A574880ED000A4F4890ED020A20
:1031F000D0ED010AB0EE001A01EE600AD0ED000A2F
:1032000030EE200A534880ED000A4C4890ED000A49
:10321000FDF729FCF0EE408A4C4890ED000AFDF7DE
:1032200022FC78EE808A4D4890ED000AFDF71BFCE9
:1032300038EE800A4A4880ED000A90ED000AB5EEAB
:10324000C00AF1EE10FA03D19FED460A80ED000AA4
:103250003A4890ED000A4248D0ED000A80EE201A6C
:10326000414880ED001A394890ED000A3C48D0ED05
:10327000000A80EE201A3D4880ED001A374890ED94
:10328000000A3748D0ED000A80EE201A384880ED59
:10329000001A354890ED000A2648D0ED000A20EECD
:1032A000200A3248D0ED000A264890ED001A00EEC0
:1032B000810A2F48D0ED000A264890ED001A00EE52
:1032C000810A2C48D0ED000A2B4890ED001A41EEFF
:1032D000000A1748C0ED000A134890ED010A80ED7E
:1032E000000A90ED020A80ED010A114890ED000AF3
:1032F000204880ED000A114890ED000A0E4880ED4C
:10330000000A124890ED000A0F4880ED000A1348A9
:1033100090ED000A104880ED000A054890ED000A83
:10332000BDEC028B10BD0000F4FC0020A0020020C8
:10333000B002002060030020C4020020B802002078
:10334000A402002064030020C8020020BC02002068
:10335000A802002068030020CC020020C002002048
:10336000DC02002017B7D138D0020020D4020020A0
:10337000D8020020B4020020AC0200209FED6D0AAC
:103380006D4880ED000A9FED6B0A6C4880ED000AE5
:103390009FED680A6A4880ED000A9FED660A694859
:1033A00080ED000A9FED630A674880ED000AB7EEE2
:1033B000000A664880ED000A9FED5E0A644880EDD1
:1033C000000AB7EE000A634880ED000A9FED590A33
:1033D000614880ED000A9FED570A604880ED000AC1
:1033E0009FED540A5E4880ED000A9FED520A5D4849
:1033F00080ED000A9FED4F0A5B4880ED000A9FEDCB
:103400004D0A80ED010A9FED4B0A80ED020A9FED07
:10341000490A564880ED000A9FED460A544880ED5F
:10342000000A9FED440A534880ED000A9FED410ACF
:10343000514880ED000A9FED3F0A504880ED000A98
:10344000B7EE000A4E4880ED000A9FED3A0A4D485B
:1034500080ED000AB7EE000A4B4880ED000A9FEDB0
:10346000350A4A4880ED000A9FED320A484880ED4F
:10347000000A9FED300A474880ED000A9FED2D0AB3
:10348000454880ED000A9FED2B0A444880ED000A74
:103490009FED280A80ED010A9FED260A80ED020AC1
:1034A0009FED240A3E4880ED000A9FED220A3D4828
:1034B00080ED000A9FED1F0A3B4880ED000A9FED5A
:1034C0001D0A3A4880ED000A9FED1A0A384880ED3F
:1034D000000AB7EE000A374880ED000A9FED150A92
:1034E000354880ED000AB7EE000A344880ED000A46
:1034F0009FED100A324880ED000A9FED0E0A314818
:1035000080ED000A9FED0B0A2F4880ED000A9FED29
:10351000090A2E4880ED000A9FED060A2C4880ED2E
:10352000000A9FED040A80ED010A9FED020A80ED7A
:10353000020A704700000000B0020020B402002020
:10354000B8020020BC020020C0020020C4020020FB
:10355000C8020020CC020020D0020020D4020020AB
:10356000D8020020DC020020F4FC0020F002002041
:10357000F4020020F8020020FC02002000030020DA
:1035800004030020080300200C0300201003002087
:1035900014030020180300201C0300200CFD002051
:1035A0003003002034030020380300203C030020B7
:1035B0004003002044030020480300204C03002067
:1035C0005003002054030020580300205C03002017
:1035D00000FD00207047000010B50348006810B1DE
:1035E00001480068804710BD2C00002070B50446DB
:1035F00000F0BCF80020454908704549087045496D
:1036000008704549086045490860454908704549C2
:1036100008704549087045490860454908604549B2
:10362000086045490870454800680A21B0FBF1F080
:10363000434908604348006858B14348056845B1AC
:103640004048066803E0761E002028602D1D002EED
:10365000F9D100203D4908603D4908603D490860B6
:103660003D4908603D4908603D4908603D490860A2
:103670003D49087001F020FE01F05AFE204601F09D
:10368000B3FB208800B170BD204601F013FC2088F8
:1036900000B1F8E7204601F019FC208800B1F2E7FC
:1036A000204601F07BFC208800B1ECE7204601F0C9
:1036B00033FE208800B1E6E7204601F09BFF20881A
:1036C00000B1E0E7204602F067FA208800B1DAE7AF
:1036D000204601F0B7FB208800B1D4E7204602F075
:1036E000D1FE208800B1CEE7204602F099F920886B
:1036F00000B1C8E7204602F021FF208800B1C2E7F0
:1037000001F09CFAFFF766FF00BFBCE74000002015
:103710004100002074000020CC000020D0000020D8
:103720005A0000205B0000205C00002068000020A0
:103730006C000020700000207C000020E4B600082F
:1037400078000020B4B60008B0B6000820000020C1
:1037500024000020280000202C0000203000002041
:103760003400002038000020AA000020064800682D
:103770000649096800EB81000549086008460068B1
:1037800020F0070008607047B0B60008B4B6000823
:10379000D400002008480078012800D0704707486E
:1037A0000078FA2800DBF9E704480078401C034958
:1037B000087000BFF2E70000410000204000002038
:1037C00010B500242D480078012800D010BD00BF9E
:1037D000FCF7FAFC044600BF2948007828B900BF6E
:1037E0002046FCF7F5FC00BFF0E725480078401EB6
:1037F0002349087008460078002805DD00BF2046F0
:10380000FCF7E6FC00BFE1E71E480078002805DD74
:1038100000BF2046FCF7DCFC00BFD7E701F038FD15
:10382000194908700846007800EB4000174951F824
:103830002000174908600846006816490968884250
:1038400005D100BF2046FCF7C3FC00BFBEE710480F
:103850000068D0F89000401C0D490968C1F890003C
:103860000D480068401C0C490860FCF7F7FF00BFDA
:103870002046FCF7ADFC00BF00BFA7E741000020D9
:1038800040000020740000205B000020D8160020BB
:10389000D0000020CC000020A000002010B50024A3
:1038A0001F480078002800DD10BD1E480078002861
:1038B00000DDF9E700BFFCF787FC044600BF01F01C
:1038C000E7FC194908700846007800EB40001749EA
:1038D00051F8200016490860084600681549096833
:1038E000884205D100BF2046FCF772FC00BFDBE731
:1038F0000F480068D0F89000401C0D490968C1F8D5
:1039000090000D480068401C0B490860FCF7A1FFBF
:1039100000BF2046FCF75CFC00BF00BFC4E700000E
:1039200040000020740000205B000020D81600201A
:10393000D0000020CC000020A000002070B504467C
:10394000002518480078002803DD46F662502080E4
:1039500070BD15480078012803D045F689602080A5
:10396000F6E712480078FA2803DB45F209202080A8
:10397000EEE700BF00BFFCF727FC054600BF00BF15
:103980000A480078401C0949087001F087FD00BF13
:1039900000BF2846FCF71CFC00BF00BF00202080B1
:1039A00000BFD5E740000020410000207400002047
:1039B0002DE9F04105460C461646002700BF00BF22
:1039C000FCF702FC074600BF00BF012D03D000201A
:1039D0000D49087002E001200B49087014B10B4832
:1039E000046006E00A4800680A21B0FBF1F00749CC
:1039F000086000BF00BF3846FCF7EAFB00BF00BF0D
:103A000000203080BDE8F0817C000020780000209C
:103A1000E4B6000870B50446002520480078002868
:103A200003DD46F66550208070BD1D4800780128F2
:103A300003D045F689602080F6E71A48007818B967
:103A400046F664502080EFE700BF00BFFCF7BCFBE8
:103A5000054600BF00BF13480078401E114908709A
:103A60000846007800280ADD00BF00BF2846FCF7A2
:103A7000AFFB00BF00BF46F663502080D4E701F0E3
:103A80001BFD00BF00BF2846FCF7A2FB00BF00BF24
:103A9000FFF704FF0020208000BFC5E740000020A2
:103AA00041000020740000202DE9F04104460E463C
:103AB00017461D464FF0000818480078002804DD1E
:103AC00042F6E1602880BDE8F0811CB945F6C3509C
:103AD0002880F8E700BF00BFFCF776FB804600BFF8
:103AE00000BF0F482060276200206062666004F11A
:103AF000080001F0E7FA204601F064FD094800885B
:103B0000401C0849088000BF00BF4046FCF760FB2E
:103B100000BF00BF0020288000BFD4E74000002085
:103B200053454D41840000202DE9F04788B00646FA
:103B3000894690461C46109D4FF0000A6048007868
:103B4000002806DD46F2AE102880002008B0BDE84F
:103B5000F08726B945F6C35028800020F6E7B8F173
:103B6000000F03D0B8F5004F02D100E000BF04E021
:103B700045F6256028800020E8E700BF51493068FD
:103B8000884204D045F6C45028800020DEE70CB1FE
:103B90000020206000BF00BFFCF716FB824600BF7C
:103BA00000BF306A88B1306A401E30620CB1706A62
:103BB0002060376A00BF00BF5046FCF709FB00BF1A
:103BC00000BF002028803846C0E708F4004060B1FC
:103BD000376A00BF00BF5046FCF7FAFA00BF00BFCB
:103BE00046F2B01028803846B0E737480078002801
:103BF0000BDD00BF00BF5046FCF7EAFA00BF00BF74
:103C000046F6635028800020A0E74B460622314646
:103C1000684601F0CFF900BF00BF5046FCF7D8FA64
:103C200000BF00BFFFF73AFE00BF00BFFCF7CCFAB1
:103C3000824600BF00BF2548006890F8350030B1CB
:103C400001280CD002281AD0032821D110E01CB181
:103C50001E480068006C20600020288024E01CB111
:103C60001A480068006C206046F2A91028801BE00A
:103C70000CB10020206047F2D920288014E01CB14C
:103C800012480068006C206045F6C25028800BE0A6
:103C900046F62E60288000BF00BF5046FCF798FA19
:103CA00000BF00BF002051E700BF376A00BF00BF60
:103CB0005046FCF78DFA00BF00BF384646E70000CB
:103CC0004000002053454D4174000020CC000020EE
:103CD0002DE9F04105460E4614462DB945F6C35070
:103CE00020800020BDE8F0814EB1B6F5007F07D0FE
:103CF000B6F5004F05D0B6F5024F04D102E000BF83
:103D000000BF00BF04E045F6256020800020E9E701
:103D100000BF0A492868884204D045F6C450208074
:103D20000020DFE7FDF73AFB804623464246314656
:103D3000284601F06BFC07463846D3E753454D4112
:103D400010B5044612480078E8B901F0A1FA11490B
:103D5000087008460078104908700E48007800EB9B
:103D600040000E4951F820000D49086008460068DF
:103D70000C490860012006490870FCF759FD43F61C
:103D80009920208002E045F68A60208010BD000066
:103D9000410000205B0000205A000020D8160020BF
:103DA000D0000020CC0000202DE9F04107464FF064
:103DB000000800BF00BFFCF707FA804600BF00BF45
:103DC00000203B4908803B4908603B4908603B496B
:103DD00008603B4908603B49088100BF00BF40467E
:103DE000FCF7F6F900BF00BF00BF00BFFCF7ECF91D
:103DF000804600BF00BF3448046800BF00BF404693
:103E0000FCF7E6F900BF00BF21E000BF00BFFCF7F0
:103E1000DBF9804600BF00BF00207834E0632060FB
:103E20002063A061A082E0826062A062FDF7B6FA22
:103E30002062783C04F164060020B081D4F8BC40D4
:103E400000BF00BF4046FCF7C3F900BF00BF002C15
:103E5000DBD100BF00BFFCF7B7F9804600BF00BF51
:103E60001A48056800BF00BF4046FCF7B1F900BF23
:103E700000BF12E000BF00BFFCF7A6F9804600BFFC
:103E800000BF05F120060020B081AD6900BF00BF72
:103E90004046FCF79DF900BF00BF002DEAD102F0BB
:103EA00005FA02F047FC00203880BDE8F0810000F0
:103EB0008A0000209C000020B0000020BC000020F0
:103EC0006C000020CC160020A40000206000002020
:103ED000F8B5044600266946324800F0E7FCBDF814
:103EE000000018B1BDF800002080F8BD6A4600212E
:103EF000022000F03BFDBDF8000018B1BDF8000045
:103F00002080F2E700BF00BFFCF75EF9064600BF65
:103F100000BF00202449086000BF00BF3046FCF706
:103F200057F900BF00BF00252048006820490968F4
:103F3000884205D91D4800681D490968B0FBF1F5A4
:103F400025B91A4800680A21B0FBF1F56A4600213C
:103F5000284600F00BFD6946124800F0C1F9BDF893
:103F6000000018B1BDF800002080BEE700BF00BF10
:103F7000FCF72AF9064600BF00BF00200D49086083
:103F8000094800680C49086001200C49087000BF0E
:103F900000BF3046FCF71CF900BF00BF00202080A6
:103FA00000BFA2E7601B00208C000020E4B60008E0
:103FB000CCB600089C000020900000209800002053
:103FC00010B50348006810B101480068804710BD73
:103FD000300000202DE9FF4F85B004469046DDE912
:103FE0001995159F139E00200290614800780028C3
:103FF00005DD47F24A10288009B0BDE8F08F1CB9F2
:1040000047F2AD102880F7E7B8F1000F03D147F26F
:104010004F102880F0E71EB946F62F602880EBE7A6
:1040200054480068874203D246F630602880E3E7B0
:104030001498B84203D346F631602880DCE7129822
:10404000402803D346F273202880D5E712983F28F2
:1040500006D14948844203D046F273202880CBE73A
:10406000204601F0A9FD0020288009F0010088B158
:1040700009F0020070B1B3460020049007E0002070
:10408000CBF800000BF1040B0498401C049004983A
:10409000B842F4D3149806EB80000390CDE9007980
:1040A00032464046039B089900F0D2FA8346C4F892
:1040B00028800898E06206982062129884F83700F9
:1040C000C4F800B00398A06017986065179818B9F5
:1040D0002A480068A06501E01798A06518986060FC
:1040E0006662A763A4F83C904FF0000A08E0002144
:1040F00004F17C0040F82A100AF1010000F0FF0AE8
:10410000BAF1000FF3D004F16400169900F03EFFFD
:10411000204600F039F800BF00BFFCF755F80290C8
:1041200000BF00BF94F8370001F0D2F8204601F03C
:1041300047F9204601F0F6FC11480088401C104960
:10414000088010480078012807D000BF00BF0298FF
:10415000FCF73EF800BF00BF4EE700BF00BF02986B
:10416000FCF736F800BF00BFFFF798FB00BF43E73E
:1041700040000020E0B6000808160020780000206B
:10418000A80000204100002010B504460348006844
:1041900018B1204601490968884710BD2000002059
:1041A00070B504460D46002643480078002803DD1C
:1041B00047F24E10288070BD4048844203D147F238
:1041C0004C102880F7E77CB900BF00BFFBF7FCFF6D
:1041D000064600BF00BF3A48046800BF00BF304633
:1041E000FBF7F6FF00BF00BF00BF00BFFBF7ECFF0F
:1041F000064600BF00BF94F8360008282DD2DFE83D
:1042000000F004090E10080A0F11204601F018F9F9
:104210002EE02DE000BF204602F02CF828E000BF81
:1042200000BF00BF204602F025F894F834000828AB
:1042300010D2DFE800F004070508090A0B0600BFEA
:1042400000BF08E000BF00BF00BF00BF204600F075
:1042500071FF00E000BF00BF0AE000BF00BF3046B2
:10426000FBF7B6FF00BF00BF46F62D602880A2E72F
:1042700000BF04F1640000F067FE204600F024F85F
:10428000204601F067FC0F480088401E0D49088059
:10429000204601F091FCFF2084F8360000BF00BFEB
:1042A0003046FBF795FF00BF00BF00202880FFF7D6
:1042B000F5FA00BF7FE7000040000020081600204C
:1042C000CC000020A800002010B504460348006878
:1042D00018B1204601490968884710BD2400002014
:1042E00070B504460D46002615480078002803DD09
:1042F00047F25510288070BD00BF00BFFBF764FF78
:10430000064600BF00BF1CB10E48006884420AD1B7
:1043100000BF00BF3046FBF75BFF00BF00BF47F2A6
:1043200057102880E7E700BF00BF3046FBF750FF7B
:1043300000BF00BF2946204601F0B0FC00BFDAE70D
:1043400040000020CC00002010B50446034800685F
:1043500018B1204601490968884710BD280000208F
:104360002DE9F04780460E4614461D464FF00009E1
:104370006F480078002805DD46F2AE102880002046
:10438000BDE8F0871EB1B6F5004F02D100E000BFD6
:1043900004E045F6256028800020F1E700BF0CB15D
:1043A0000020206000BF00BFFBF70EFF814600BF6A
:1043B00000BF60480068406CA8B35E480068406C6D
:1043C000401E5C49096848645A480068476C1CB143
:1043D00058480068006C2060FCF7E0FF5549096808
:1043E000096C401A53490968C1F8A4005148006893
:1043F000D0F8A8004F490968D1F8A410884207D224
:104400004C480068D0F8A4004A490968C1F8A800DF
:1044100000BF00BF4846FBF7DBFE00BF00BF002027
:1044200028803846ACE7FFE706F4004058B100BFEB
:1044300000BF4846FBF7CCFE00BF00BF46F2B010FD
:10444000288000209CE73C48007800280BDD00BF56
:1044500000BF4846FBF7BCFE00BF00BF46F66350F6
:10446000288000208CE7434607220021084600F000
:10447000A1FD00BF00BF4846FBF7AAFE00BF00BF7A
:10448000FFF70CFA00BF00BFFBF79EFE814600BF9E
:1044900000BF2848006890F8350020B1012826D0D8
:1044A000032834D12CE0FCB122480068006C206065
:1044B000FCF774FF1F490968096C401A1D49096817
:1044C000C1F8A4001B480068D0F8A8001949096881
:1044D000D1F8A410884207D216480068D0F8A4008A
:1044E00014490968C1F8A8000020288013E01CB115
:1044F00010480068006C206046F2A91028800AE08D
:104500000CB10020206047F2D920288003E046F655
:104510002E60288000BF00BF06480068476C00BFBF
:1045200000BF4846FBF754FE00BF00BF384627E7F0
:1045300040000020CC000020740000202DE9F04154
:1045400006460D4614461DB1B5F5004F02D100E0F8
:1045500000BF05E045F6256020800020BDE8F08121
:1045600000BFFCF71BFF80462346424629463046E3
:1045700001F020FC07463846F0E700002DE9F0473F
:1045800005460E4617461C464FF0000A2E48007896
:10459000002804DD47F259102080BDE8F0871EB9DD
:1045A00046F2D5202080F8E71FB946F2D5202080BA
:1045B000F3E700BF00BFFBF707FE824600BF00BF66
:1045C0000DB922480568286868B900BF00BF504689
:1045D000FBF7FEFD00BF00BF00203060386047F2EF
:1045E00052102080D9E795F83C0000F0010068B92E
:1045F00000BF00BF5046FBF7EBFD00BF00BF00202F
:104600003060386047F254102080C6E700BF00BF1A
:104610005046FBF7DDFD00BF00BF4FF00008D5F8A6
:10462000249003E009F1040908F10108D9F8000019
:104630000028F7D0C6F80080A86BA0EB080038600F
:104640000020208000BFA8E740000020CC00002010
:10465000F0B50446DDE9055602EB850020F00700C1
:104660004FF0000C071F3846C7F800C04FF4805CBD
:10467000071F3846C7F800C04FF0150C071F384613
:10468000C7F800C04FF0140C071F3846C7F800C029
:104690004FF0130C071F3846C7F800C04FF0120C3C
:1046A000071F3846C7F800C04FF0110C071F3846E7
:1046B000C7F800C04FF0100C071F3846C7F800C0FD
:1046C0004FF0090C071F3846C7F800C04FF0080C20
:1046D000071F3846C7F800C04FF0070C071F3846C1
:1046E000C7F800C04FF0060C071F3846C7F800C0D7
:1046F0004FF0050C071F3846C7F800C04FF0040CF8
:10470000071F3846C7F800C04FF0030C071F384694
:10471000C7F800C04FF0020C071F3846C7F800C0AA
:104720004FF0010C071F3846C7F800C04FF0000CCF
:10473000071F3846C7F800C04FF0807C071F384677
:10474000C7F800C0071F38463C60DFF85CC1071F90
:104750003846C7F800C04FF0123C071F3846C7F86C
:1047600000C04FF0033C071F3846C7F800C04FF0A9
:10477000023C071F3846C7F800C0071F38463B6099
:10478000071F384639604FF0310C071F3846C7F80D
:1047900000C04FF0300C071F3846C7F800C04FF07C
:1047A000290C071F3846C7F800C04FF0280C071F18
:1047B0003846C7F800C04FF0270C071F3846C7F827
:1047C00000C04FF0260C071F3846C7F800C04FF056
:1047D000250C071F3846C7F800C04FF0240C071FF0
:1047E0003846C7F800C04FF0230C071F3846C7F8FB
:1047F00000C04FF0220C071F3846C7F800C04FF02A
:10480000210C071F3846C7F800C04FF0200C071FC7
:104810003846C7F800C04FF0190C071F3846C7F8D4
:1048200000C04FF0180C071F3846C7F800C04FF003
:10483000170C071F3846C7F800C04FF0160C071FAB
:104840003846C7F800C04FF0113C071F3846C7F87C
:1048500000C04FF0103C071F3846C7F800C04FF0AB
:10486000093C071F3846C7F800C04FF0083C071F37
:104870003846C7F800C04FF0073C071F3846C7F856
:1048800000C04FF0063C071F3846C7F800C04FF085
:10489000053C071F3846C7F800C04FF0043C071F0F
:1048A0003846C7F800C0F0BD9D5D000870B50546EC
:1048B0000C460A480078002803DD47F25D1020808E
:1048C00070BD0748854203D147F25B102080F7E7AF
:1048D0002146284601F050FB00BFF1E740000020D0
:1048E0000816002010B51D48006810B11B4800686C
:1048F0008047FCF753FD04461948006819490968C8
:10490000884215D016480068D0F89800201A14493B
:104910000968C1F8940012480068D0F89C0010495A
:104920000968D1F8941008440D490968C1F89C0041
:104930000C480068C0F8984009480068D0F8B400F6
:1049400009490968884205D207480068044909688E
:10495000C1F8B40000200449086010BD34000020F4
:10496000CC000020D0000020700000202DE9F04194
:1049700005460E46144600272A480078002804DD24
:1049800047F275202080BDE8F08127480078002894
:1049900003DD46F663502080F5E736B1022E05D0E0
:1049A000042E0AD0082E09D101E000BF00BF1DB9B6
:1049B00047F27E202080E6E704E003E045F625602C
:1049C0002080E0E700BF00BF00BFFBF7FDFB07460C
:1049D00000BF00BF01201549096881F83600234651
:1049E000324629461148006801F066FB208838B13C
:1049F00000BF00BF3846FBF7EBFB00BF00BFC2E7BC
:104A00000A48006800F01CFD00BF00BF3846FBF7F5
:104A1000DFFB00BF00BFFEF741FF0020208000BF8A
:104A2000B1E700004000002074000020CC0000200E
:104A30002DE9FF5F05460E4617469846DDE90EA4B0
:104A4000002000905D480078002804DD47F27520C2
:104A50002080BDE8FF9F5A480078002803DD46F615
:104A600063502080F5E70AF00E0BBBF1000F09D070
:104A7000BBF1020F07D0BBF1040F10D0BBF1080F40
:104A80000ED101E000BF00BFB8F1000F06D12FB971
:104A900026B91DB947F27E202080DAE704E003E062
:104AA00045F625602080D4E700BF2AF01E0008B13B
:104AB000012000E0002003900398012803D145F66F
:104AC00025602080C5E7CAF3001002900298C0B9A3
:104AD000B8F57A7F03D347F27B202080B9E73B2FDC
:104AE00003DD47F27A202080B3E73B2E03DD47F257
:104AF00079202080ADE7632D12DD47F278202080F9
:104B0000A7E742F20F70864203DD47F2792020804A
:104B10009FE7B5F57A7F03DB47F27820208098E79E
:104B20002848D0F800904FF4FA70B0FBF9F04044F8
:104B300000FB09F04FF47A71B0FBF1F14FF46160C2
:104B40006843C6EB061200EB8200384400FB0910F4
:104B50000190019860B300BF00BFFBF735FB0090E8
:104B600000BF00BF01201849096881F836002346BC
:104B70005A4615480199006801F09EFA208838B11C
:104B800000BF00BF0098FBF723FB00BF00BF60E73A
:104B90000D48006800F054FC00BF00BF0098FBF710
:104BA00017FB00BF00BFFEF779FE0020208002E067
:104BB00047F27E20208000BF4BE70000400000202D
:104BC00074000020E4B60008CC00002008B500F016
:104BD0002BF86A4600210E48FFF7B0FC0D49097812
:104BE00001EB41010C4A02EB810000F083FC0B4811
:104BF0000068401E094908600846006838B908483E
:104C0000006808606A4600210648FFF797FC08BD67
:104C10009C1A00205A000020D8160020C80000204E
:104C2000C4000020601B002010B50348006810B1CC
:104C300001480068804710BD38000020244A2549FB
:104C4000254A264A2649274A2748284A284A294ADF
:104C5000294A2A482A482B4A2B482C4A2C482D4AB4
:104C60002D482E482E482F482F4A304A304A314886
:104C7000314A324A32483348334834483448354858
:104C80003548364A364A374A374A38483848394824
:104C9000394A3A4A3A4A3B483B483C483C493D48F5
:104CA0003D4A3E4A3E4A3F4A3F4A404A404A4148BE
:104CB000414A424A42484348434A444A4448454A92
:104CC000454A46484648474800BF00BF00BF7047B6
:104CD00028B7000890B8000829B700082AB70008CC
:104CE0002CB7000830B7000834B7000831B7000807
:104CF0005CB700085DB700085EB7000860B7000841
:104D000062B7000866B7000868B7000888B70008EF
:104D10008AB700088CB700088EB7000890B7000863
:104D200092B7000894B70008C0B70008C1B70008E0
:104D3000C2B70008C4B70008C6B70008C7B7000864
:104D4000C8B70008CAB70008CCB70008CEB700083B
:104D5000D0B70008D2B70008D4B7000804B80008DC
:104D600005B8000806B8000807B8000808B8000829
:104D70000AB800080CB8000834B8000835B80008B4
:104D800036B8000837B8000838B800083AB8000844
:104D90003CB8000840B8000841B8000842B8000814
:104DA00043B8000844B8000845B8000846B80008F1
:104DB00047B8000848B800084AB800084BB80008CF
:104DC0004CB800084EB8000850B8000851B80008A8
:104DD00054B8000888B8000889B800088AB80008E4
:104DE0008CB800088EB800080021034A1160034AFD
:104DF000118001807047000044000020480000201E
:104E0000002400BF19E000BF00BFFBF7DDF9044636
:104E100000BF00BF09480068401C084908600848F6
:104E20000068401C0649086000BF00BF2046FBF731
:104E3000CFF900BF00BFFEF7CFFBE4E73C00002046
:104E40008C00002010B58AB0044600200E4908608E
:104E50000B2000210591CDE90704069108460B4976
:104E600009680B4A12680B4B1B68CDE90132CDE98A
:104E700003103F200023084A08A100900C48FFF7C8
:104E8000A9F80AB010BD00003C0000208CB6000854
:104E900088B6000884B60008014E000875432F4FFD
:104EA000532D4949492049646C65205461736B0056
:104EB000081600200021034A1160034A1180018076
:104EC000704700004C0000205000002070B50146E3
:104ED0001A4D2D681DB945F21E750D8070BD184D17
:104EE0002D881DB945F21D750D80F7E7134D286813
:104EF0002A681032124D2D886D1EACB2002308E0D6
:104F00000260002545600581C560103010325D1CCF
:104F1000ABB2A342F4DB0025056045600581C560A6
:104F2000064D2D68074E3560054D2D88B58000254E
:104F3000F58035810D8000BFD0E70000C4B60008C1
:104F4000BCB60008CC16002010B5014648894B8934
:104F5000002B17DD0A680C4B1B6813600A4C4B686A
:104F600023602346DB884C891B1B074CE3802346C8
:104F70009B884C892344044CA38000234B818B8164
:104F80000B604B6010BD0000CC1600200181002298
:104F90004281828102604260704700000021034A22
:104FA0001160034A11800180704700005400002006
:104FB000580000202DE9F04105460C4616461F46D4
:104FC0001548006880F8346000201349096881F8AA
:104FD000350039461048006800F088FD6CB104F1D6
:104FE0000808EC60012229460B48006800F016F81A
:104FF0002946404600F06BF806E0002006490968A3
:10500000C88705490968086303480168204600F01D
:1050100019F8BDE8F0810000CC00002010B5C2876F
:10502000016300230AE000244C600C600C614C61B9
:105030000C83CC61886020315C1CA3B29342F2DB0C
:1050400010BD000030B548B14568C1F8C05000F14E
:105050000804226893681D6AC56113E091F8345012
:10506000022D02D0072D08D103E007A5C1F8C050DA
:1050700007E007A5C1F8C05003E008A5C1F8C0507B
:1050800000BF00BF30BD00005461736B20510000B1
:105090005461736B2053656D000000002000000018
:1050A00030B507A5C1F8C05000F1080422681AB154
:1050B00093681D6AC56101E001A5C56130BD0000AE
:1050C0002000000000210160416001817047F0B5BF
:1050D0008E6896F8375007893FB901270781002766
:1050E0004F600F600160416023E007897F1C0781EA
:1050F000026806E0946894F83770AF4200DD02E081
:105100005268002AF6D100BF32B900274F604368C9
:105110000B60596041600CE017682FB911600027DF
:105120000F604A60016004E013680B604A605960D8
:105130001160F0BD2DE9F0410446256BE68F0AE0D1
:10514000D5F80C8008F108072946384600F00AF81F
:105150002035701E86B2002EF2DC0020E08720632E
:10516000BDE8F08110B50489012C03D1002404604E
:10517000446011E00C6824B94A680024146002609D
:105180000AE04C6824B90B6800245C60436003E0CB
:105190000B684A685A6013600489641E0481002405
:1051A0004C600C6010BD2DE9F84306460C461746CE
:1051B0009846089D94F83600082850D2DFE800F0A1
:1051C0000405080906072B2C00BF00BF00BF47E0FD
:1051D00000BF94F83400032807D143463A462146DD
:1051E0003046009500F03FF803E0E765A4F86080E2
:1051F000256436B12046FFF79DFF21463046FFF774
:105200004FFF204600F03CFD00203434A070607059
:1052100004F8340924E000BF94F83400032807D1CF
:1052200043463A4621463046009500F01CF803E01C
:10523000E765A4F860802564204601F01BF836B1CC
:105240002046FFF777FF21463046FFF729FF04206D
:105250003434A0700020607004F8340900E000BF0E
:1052600000BFBDE8F883F0B50446059E086BCD8FFE
:105270000AE0C768A74204D1046142610383C661A2
:1052800004E020306F1EBDB2002DF2DC00BFF0BD87
:1052900070B50025074C03E005F12000C5B2241DC0
:1052A00020680028F8D02068FAF799FF2844C5B292
:1052B000284670BD18000020002004E00021034AA9
:1052C00042F82010401C0228F8D370471800002034
:1052D00030B5420900F01F030121C3F11F04A140B2
:1052E000034C54F822400C43014D45F8224030BD98
:1052F0001800002030B5420900F01F030121C3F15E
:105300001F04A140034C54F822408C43014D45F842
:10531000224030BD180000200021034A1160034ADA
:1053200011800180704700006000002064000020B0
:1053300000210AE001EB4102054B03EB8200002251
:105340000281026042604A1CD1B24029F2D3704708
:10535000D816002010B5044694F83700FFF7B8FFC0
:1053600094F8370005490978884203D1204600F0B7
:1053700027F802E0204600F003F810BD5A00002094
:1053800010B590F8373003EB43030C4C04EB83016A
:105390000B893BB901230B810023C36003610860C3
:1053A000486009E00B895B1C0B810B68C36000231C
:1053B00003610A681061086010BD0000D816002063
:1053C00010B590F8373003EB43030B4C04EB83012B
:1053D0000B893BB901230B810023C3600361086083
:1053E000486008E00B895B1C0B810023C3604A689E
:1053F0000261D060486010BDD816002010B501468B
:105400000C8924B1012C03D0022C0CD101E000BF87
:1054100014E008684A6802610024C4601461D06026
:105420000A6048600AE008684A68C36800241C6192
:10543000C4600261D0600B60486000BF00BF10BD57
:105440002DE9F041054695F8370000EB4000124980
:1054500001EB80042F69EE6887B946B900202081EE
:105460002060606095F83700FFF744FF0EE0208968
:10547000401E208100203061266007E02089401E08
:105480002081FE600EB9676000E03761002028616E
:10549000E860BDE8F0810000D816002010B504488F
:1054A0000078012803D1FBF779FF0249086010BD9D
:1054B000740000206800002010B50A48007880B908
:1054C000FBF76CFF08490968441A08480068A042C5
:1054D00001D20648046006480068A04201D2044890
:1054E000046010BD74000020680000206C000020E3
:1054F0007000002070B5054600262E48007801286F
:1055000000D070BD00BF00BFFAF75EFE064600BFC8
:1055100000BF2C683CB900BF00BF3046FAF758FE08
:1055200000BF00BFEDE72448844207D100BF00BFA1
:105530003046FAF74DFE00BF00BFE2E7A06D10B1A4
:10554000A06D401EA065A06D38B100BF00BF304601
:10555000FAF73EFE00BF00BFD3E72889022807DA2A
:1055600000BF00BF3046FAF733FE00BF00BFC8E7F8
:1055700012480078002807DD00BF00BF3046FAF768
:1055800027FE00BF00BFBCE72846FFF737FF2C68A7
:10559000606D18B90A480068A06501E0606DA065FB
:1055A00000BF00BF3046FAF713FE00BF00BF00BFC8
:1055B000A7E700007C0000200816002074000020EF
:1055C0007800002009A1C1610021416108490968F2
:1055D00011B90021816105E005490968816104492B
:1055E0000968486102490860704700002000000017
:1055F000800000200021034A1160034A11800180CD
:105600007047000080000020840000202DE9FF5F2B
:105610000446884691461D460020019000BF00BF09
:10562000FAF7D2FD019000BF00BF04F108073889E6
:1056300000284FD10420012804D0022814D00428C7
:1056400034D123E0206AFF280DD100BF00BF0198AC
:10565000FAF7BEFD00BF00BF46F6C5502880002007
:1056600004B0BDE8F09F22E04FF6FF71206A884247
:105670000BD100BF00BF0198FAF7AAFD00BF00BF21
:1056800046F6C55028800020EAE710E0206A401C5A
:1056900058B900BF00BF0198FAF79AFD00BF00BFDC
:1056A00046F6C55028800020DAE700E000BF00BFC2
:1056B000206A401C2062D4F820A0C4F8249000BFC7
:1056C00000BF0198FAF784FD00BF00BF00202880CA
:1056D0005046C5E708F4007008B13E8900E0012695
:1056E000D7F800B011E0DBF808000290DBF8040006
:1056F000039000231A46CDF8009020460299FFF748
:1057000052FDDDF80CB0701E86B2002EEBD1D4F83D
:1057100020A000BF00BF0198FAF75AFD00BF00BFEC
:1057200008F4004008B9FEF7B9F800202880504678
:1057300096E7000086B00020009000BF06E0A9496F
:105740000968480001AA0021FFF710F9A64800786F
:105750000128F4D101A8FEF727FB0027A348006821
:10576000A0490968884205D9A04800689D49096890
:10577000B0FBF1F727B99D4800680A21B0FBF1F7AB
:105780002EE1FBF70BFE804600BF00BFFAF71CFDC1
:10579000009000BF00BF964800689649086000204E
:1057A0009349086000BF00BF0098FAF711FD00BFE1
:1057B00000BF914800688F490968884248D98E48DF
:1057C00000688E49884205D242F210700390012091
:1057D000029023E0884800688949884205D24FF446
:1057E0007A7003900A20029018E083480068854987
:1057F000884203D26420039002900FE07E48006844
:105800008149884205D20A2003904FF47A700290B1
:1058100004E00120039042F2107002907648016883
:105820000298B1FBF0FA7349039809684843B0FB4A
:10583000FAF042F21071081A74490880744800881E
:105840000988884208DA714800887149088003E0B5
:1058500042F210706D490880FEF7B2FB002500BFD0
:1058600000BFFAF7B1FC009000BF00BF69480468B0
:1058700000BF00BF0098FAF7ABFC00BF00BF26E0F6
:1058800000BF00BFFAF7A0FC009000BF00BF54F8B3
:105890009C0F6060002044F89C0900BF00BF009886
:1058A000FAF796FC00BF00BFD4F8A000054400BF83
:1058B00000BFFAF789FC009000BF00BFD4F8BC40DD
:1058C00000BF00BF0098FAF783FC00BF00BF002CA8
:1058D000D6D145B34948854205D242F210700590B1
:1058E0004FF0010B1BE04648854205D24FF47A7019
:1058F00005904FF00A0B12E04248854203D2642023
:10590000059083460BE04048854204D20A2005906A
:105910004FF47A7B03E00120059042F2107BB5FB47
:10592000FBF0049003E0002005900120049000BFEC
:1059300000BFFAF749FC009000BF00BF354804687B
:1059400000BF00BF0098FAF743FC00BF00BF2BE088
:10595000D4F8A000059948430499B0FBF1F086B251
:1059600042F21070864200D90646A4F88C60B4F862
:105970008E00B04201DAA4F88E6001AB04F1AC02F3
:10598000111D2046FEF7FAFD00BF00BFFAF71CFC10
:10599000009000BF00BFD4F8BC4000BF00BF00981B
:1059A000FAF716FC00BF00BF002CD1D11A480078CE
:1059B000012805D100201849087001A8FEF7F4F964
:1059C000FBF7ECFCA0EB080914480068484502D23C
:1059D0001248C0F8009001AA00213846FEF7C6FF21
:1059E000CFE60000CCB6000898000020E4B600081E
:1059F0008C0000209400002090000020801A0600F7
:105A000000093D00005A62020084D7178800002078
:105A10008A000020A4000020860000209C000020B6
:105A200010B58AB0044600201F4908601F4908606D
:105A30001F4908601F4908701F4908701F48006807
:105A400020B946F62B6020800AB010BD1C480068C3
:105A50001C490968884203D246F62C602080F3E78F
:105A6000194800783F2803D346F62A602080EBE7E8
:105A7000032000210591CDE907040691084610494D
:105A80000968124A12680D4B1B68CDE90132CDE955
:105A900003100D48007800230D4A0EA10090124813
:105AA000FEF798FA00BFCFE78C000020940000209A
:105AB000900000209800002086000020D0B600084A
:105AC000D8B60008E0B60008C8B60008D4B600088A
:105AD0003557000875432F4F532D494949205374BA
